:100000000C9437000C9450010C9450010C94500146
:100010000C94EB000C9450010C9450010C94500182
:100020000C9450010C9450010C9450010C9450010C
:100030000C9450010C9450010C9450010C945001FC
:100040000C9450010C9450010C9450010C945001EC
:100050000C9450010C94C7000C9450010C94500166
:100060000C9450010C9450010100010480001124F3
:100070001FBECFEFD8E0DEBFCDBFE8E6F0E040E046
:1000800017C0B591A59135912591059107FD0CC03B
:1000900095918591EF01F92FE82F05900D92A21708
:1000A000B307D9F7FE0104C01D92A217B307E1F709
:1000B000ED36F40731F70E9469000C944501F8947D
:0200C000FFCF70
:1000C2004079243019120278001008034621060EE6
:1000D200F8940E942B010E940D017894EAE7F0E067
:1000E20080818064808398B180910301907F8F70BA
:1000F200892B88B985B19091030192959F70807F79
:10010200892B85B985B1806185B985B18F7D85B926
:100112002BB18091010190E0A0E08E539F4FAF4F31
:10012200FC018491A7FD80812078822B8BB98FE717
:100132009EE30197F1F700C0000085B1806285B9A6
:1001420085B18F7E85B92BB18091000190E0A0E04E
:100152008E539F4FAF4FFC018491A7FD8081207881
:10016200822B8BB98FE79EE30197F1F700C0000065
:100172009091020180910301891720F48BB180686C
:0C0182008BB9ACCF8BB18F778BB9A8CFB5
:10018E001F920F920FB60F9211248F93EF93FF933E
:10019E008091790080930201809102018F7080938B
:1001AE0001018091020182958F7080930001EAE730
:1001BE00F0E0808180618083FF91EF918F910F90AD
:0801CE000FBE0F901F90189561
:1001D6001F920F920FB60F9211248F939F938FE366
:1001E6009CE90197F1F700C00000349905C08091A1
:1001F60003018F5F80930301359905C08091030148
:100206008150809303019F918F910F900FBE0F90A5
:040216001F90189588
:10021A00ECE7F0E0108280818064808380818062D4
:10022A008083808187608083EAE7F0E010828081A2
:10023A0088608083808180688083808187608083F2
:0C024A00EEE7F0E080818F7C8083089557
:1002560087B18F7887B988B1806388B9E8E6F0E01E
:10026600808182608083ECE6F0E080818063808319
:100276008FEF8AB91BB81092C1009FE097B984B975
:0402860078940895CB
:10028A00EC010E9455010E945401CE010E945601C0
:06029A00CE010E9452019A
:0402A0000C940000BA
:0402A4000E945F0055
:0202A8000895B7
:0202AA000895B5
:0202AC000895B3
:00000001FF
